:0A0000000C94DE000C9400000C9438
:10000A0000000C9400000C9443010C9400000C9422
:10001A0000000C9400000C9400000C940B010C944A
:10002A0000000C9400000C9400000C9400000C9446
:10003A0000000C9400000C9400000C9400000C9436
:10004A0000000C9400000C9400001027E8036400E0
:10005A000A00010000100001100001000A00FFFF61
:10006A00FA000000000048004F0057005E006500DB
:10007A006B007100760079007C007E007F007F00B3
:10008A007E007C007900760071006B0065005E00DE
:10009A0057004F0048004000370030002800210078
:1000AA001A0014000E0009000600030001000000F7
:1000BA00000001000300060009000E0014001A00E7
:1000CA0021002800300037003F00F501456E7465B5
:1000DA0072204D6F6465282A53696E202353717507
:1000EA0061726529004D6F64653A53696E2C20452B
:1000FA006E7465722046727128656E642077697421
:10010A0068202329004D6F64653A53712C20456E8F
:10011A007465722046727128656E64207769746806
:10012A0020232900436F6E74696E756520696E20FD
:10013A0063757272656E74206D6F6465004D6F64CD
:10014A00653A53696E2C20467271203D2025640061
:10015A00456E7465722044757479204379636C65C1
:10016A0025004D6F64653A53712C20467271203D0B
:10017A002025642C20444325203D2025640080C08E
:10018A000A00040066006300F50170000200BD0267
:10019A00D40019006001D60020007901EF001F0089
:1001AA0099010F011900B8012E010200BF0288014E
:1001BA000000F894EE27ECBBF1E0FBBFEBBFE5BF14
:1001CA008DE0A2E0BB27ED938A95E9F780E094E001
:1001DA00A0E6ED930197E9F7EAE8F1E085919591B8
:1001EA00009761F0A591B59105901590BF01F001B6
:1001FA0005900D920197E1F7FB01F0CFEFE5EDBF16
:10020A00E4E0EEBFC0E6D1E00C9434020A921A92FE
:10021A009A93AA93BA93EA93FA93EFB7EA93E0917F
:10022A00F101F091F201CE16DF0624F4F6013196BF
:10023A006F011AC0CC24DD24A3EFB1E00E94E204CE
:10024A00A091BD02B091BE020E94E904EC91E5BB07
:10025A00A091F301B091F401E2E3F0E00E94A60557
:10026A00E093F301F093F401E991EFBFF991E99179
:10027A00B991A991999119900990189518955F9B30
:10028A00FECF85E88A95F1F7ECB108951A930A939F
:10029A000E94EE0400E010E0D501E2E0F0E00E94E6
:1002AA00A1050E171F0764F4F801A9E5B2E00E9440
:1002BA00E904EFE7F0E0ED93FC930F5F1F4FECCFFB
:1002CA00D501E2E0F0E00E94A10531968F010233E8
:1002DA00E0E01E0764F4F801A9E5B2E00E94E9042F
:1002EA00E0E0F0E0ED93FC930F5F1F4FF0CFE9E5FC
:1002FA00F2E0E093BD02F093BE02099119910895CC
:10030A000E94EE04E5EFF1E0E093BD02F093BE0235
:10031A00089528D1A0E6B1E00E94E5026624772478
:10032A000895062C072801F50E94F90451F4E1E02A
:10033A00F0E03F0117D1A9E7B1E042D1882499241E
:10034A0012C00E94FE0451F4E2E0F0E03F010AD13B
:10035A00A9E9B1E035D18824992405C00E94030592
:10036A00A8EBB1E02DD17AC0E1E0F0E0E615F7059F
:10037A00B9F40E94F90419F00E94FE0451F40E9493
:10038A0003050E940805E7E4F1E00E940D05B8DFC5
:10039A0006C00E941C05E7E5F1E00E940D055EC05B
:1003AA00E2E0F0E0E615F70501F50E94F90419F01C
:1003BA000E94FE0499F4E3E0F0E03F01D3D00E94EA
:1003CA000805EAE5F1E0FA93EA9380E00E949504D1
:1003DA0024960E942705AA24BB2406C00E941C0555
:1003EA00E7E5F1E00E940D0539C0E3E0F0E0E6152B
:1003FA00F705A1F50E94F90419F00E94FE04B1F470
:10040A000E9403050E940805ECE6F1E0FA93EA93DC
:10041A00F4010E942B05F5010E942B0588E00E9439
:10042A0095042C960E94270531DF18C0F501AAE031
:10043A00B0E00E9489055F01A40CB51C93D00E940C
:10044A000805E7E5F1E0FA93EA93F5010E942B0526
:10045A0084E00E94950428960E9427050895E0E00A
:10046A00EABBEBBBE7BBE8BBEFEFE4BBE0E0E5BB15
:10047A00E0E8E1BBE0E0E2BBE1E0E3BFE0E0E2BFED
:10048A00ECBFEFBDEEBDEDBDECBDE7BDE6BDEBBD1E
:10049A00EABDE9BDE8BDE2BDE9E7E5BDE0E0E4BDEE
:1004AA00E3BDE1E4E9BFE0E0E5BFE4BFEBB9E0E1C9
:1004BA00EAB9E6E8E0BDE0E0E0BDE3E3E9B9E0E897
:1004CA00E8B9E0E0E0BFE6B9EDB9E6BFA0E189D05E
:1004DA0078941FDFD4DE4E2E5524EBE0F0E0E415CD
:1004EA00F50511F4442455240E94F90421F400244A
:1004FA000614070409F402C00CDF01C012DFEACFB8
:10050A00FFCFAA93EBB3EF70AE2FE881E07FEA2B1F
:10051A00EBBB8DE08A95F1F7DA9A8DE08A95F1F7CF
:10052A00DA988DE08A95F1F789C0AA93A881E9DF64
:10053A00E881E295E883A881E4DF85E88A95F1F706
:10054A007DC0AA93E881F0E0E154FD4FE081A981E2
:10055A00AE0FEBDFE981E093C302E881E093C402C6
:10056A0022960895A2E00E943005ACE0DEDFA1E009
:10057A000E943005E0E0E093C402E093C3020895CC
:10058A00AA93A881AA3031F0E091C502A091C302D2
:10059A00AE1760F0E0E0EA93A091C402AF5FA093C7
:1005AA00C402CFDFA881AA3009F448C0E091C3028F
:1005BA00EF5FE093C302D89AA881B7DFD8983EC00C
:1005CA00BA93AA931A93A981BA81ED91A983BA839E
:1005DA001E2FE03019F0A12FD3DFF5CF1881239613
:1005EA000895AA93EAB3E06FEABBD29AD09AD19A55
:1005FA00DA98D898D998E881E093C502E058E09350
:10060A00C102E881E054E093C202A4E1B0E00E9492
:10061A006A050E9436050E9436050E943605A0E248
:10062A0070DF88EC90E00197F1F7A8E27EDFA4E0A2
:10063A007CDFA5E87ADFA6E078DF94DF21960895CB
:10064A00BA93AA931A930A93AA81BB8112960E941B
:10065A00C205309739F1AA81BB8114960E94C2055E
:10066A008F01309761F00230E0E01E0778F0F80160
:10067A0031978F01AA81BB811496ED93FC93AA81CD
:10068A00BB8112960E94E204AC81A083AA81BB813D
:10069A000E94C205FF232AF0ED91FD913196FE9347
:1006AA00EE9306C0AA81BB81EFEFFFEFED93FC93B7
:1006BA001981088125960895BA93AA9326970E94CC
:1006CA00CF0510E0AC85BD85E0E0F0E0ED93FC934A
:1006DA00EA89FB893196EA8BFB8B3197E4912E2FBD
:1006EA00E03009F415C1E12FE03039F4253211F474
:1006FA0011E002C00E943E050AC1E130A9F4253288
:10070A0019F40E943E0502C112E040E000E02D32D9
:10071A0011F401E0FCC02B3211F44BE2F8C0203294
:10072A0011F440E2F4C002C0E23039F450E013E0C0
:10073A00203311F40068EBC003C0E33009F0E7C0CE
:10074A00203310F02A3308F007C0AAE05A9F502D30
:10075A00E22FE0535E0FDBC0E22FE33649F40E943A
:10076A004505E889F989A481AA930E944B05CEC060
:10077A00E33741F40E9445050E9451050E94C904CD
:10078A001E2F0AC0E03761F40E9445050E945105F8
:10079A000E94D5041E2F086002600F7730E034C033
:1007AA00E43611F0E93611F4046002C0E53731F499
:1007BA00E4E5F0E0EE83FF8315E00CC0E83511F4C0
:1007CA00086003C0E83709F0A1C0EEE5F0E0EE8367
:1007DA00FF8314E002FF14C00E9445050E945B05D6
:1007EA00AB85AA233AF4EA85FB850E947805EA8755
:1007FA00FB874DE2403011F01F5F01C00B7F04C040
:10080A000E9445050E945B0500FD11C0151778F48A
:10081A0007FF08C002FF04C00B7F242F115001C03C
:10082A0020E301C020E20E943E055150EFCF312F54
:10083A0001FF17C03030A1F003FF06C0EE81FF812F
:10084A002591EE83FF8305C0AE81BF812D91AE83D2
:10085A00BF830E943E05503009F051503150EACF13
:10086A004BC020E3EE81FF810E94C605E887F98725
:10087A00EE81FF813296EE83FF83E885F985AA85AA
:10088A00BB85AE17BF0750F02F5FA885B985EA85EB
:10089A00FB85EA1BFB0BEA87FB87EFCF2A3328F09D
:1008AA0003FF02C0295F01C0295D04FD1AC021337C
:1008BA0020F4A885B985119709F409C0531710F0D7
:1008CA0000FF01C013C020E207FF0BC020E3006154
:1008DA0002FF07C00B7F4A930E944B05503009F074
:1008EA0051500E943E05503009F051503150A885B0
:1008FA00B985129708F0B5CF00FF08C0503031F023
:10090A005150E0E2EA930E944B05F8CF10E0E0CEA6
:10091A00AC85BD850E94C2050E94D60564960895DD
:10092A00FF92F82E26970E94D1050E946305309700
:10093A0019F4EFEFFFEF23C0DE0116960E9474054B
:10094A008D010E946305EE83FF83E0E0E887E98773
:10095A00DE011A960E9474050E94C205FA93EA9370
:10096A001A930A93E5E2F3E0FA93EA93DE011A9600
:10097A00A3DE9F01AE81BF81E0E0EC93F9010E9402
:10098A00D8052A96FF900895BA93AA93A991B99186
:10099A00EE27FF276D91662311F03196FBCF08955C
:1009AA00BA93AA93AA27BB27E991F9910590002047
:1009BA0011F01196FBCFFD010895ED91FD9131964D
:1009CA00FE93EE9331970895EE0FFF1FAE0FBF1FF0
:1009DA000895F401A1E7B2E00E94A1053197E093DE
:1009EA00F101F093F2010895EAE0F0E0E415F5056B
:1009FA000895ECE0F0E0E415F5050895EFEFFFEF58
:100A0A003F010C94B702E1EDF1E0FA93EA930895FD
:100A1A00FA93EA93F4010E947C050E94CA0584E0D5
:100A2A000E9495042896A1EDB1E00C94E502F40128
:100A3A00AAE0B0E00E9489054F01840C951C0E942F
:100A4A00B702E1CFA1EDB1E00C94E5020E947C056A
:100A5A000E94CA0508950E949A02A3E0B0E00C948D
:100A6A006A05A0E30E94860288EC90E00197F1F7FC
:100A7A0008952A93AD85BE85EF85F889099508956D
:100A8A00E889F9893497E88BF98B0895AD85BE8595
:100A9A00EF85F88909950895A889B98914960E945D
:100AAA00C205EE83FF83AE81BF810895A889B98903
:100ABA0014960E94C205EA87FB870895DE011C96F8
:100ACA000E9474050E94C2050895109639F080EDBF
:100ADA0097E00197F1F7A8951197C9F708950024AF
:100AEA00AF0DB01D0895F195E195F04008956F2F6F
:100AFA00660F660B762F0895FA9FF02DEB9FF00D87
:100B0A00EA9FE02DF10D08952AD0F6DF0EF4EBDF0F
:100B1A0008950024112490E1AA0FBB1F001C111C88
:100B2A000E1A1F0A18F40E0E1F1E01C0A1609A9514
:100B3A0099F7FD01D001089512D0EBDF0EF4D3DF4F
:100B4A000895E894B7FF04C0A095B09511966894EB
:100B5A00F7FDC9DFDEDFFD010EF4C5DF0895E89475
:100B6A00F7FF02C0C0DF6894B7FF06C0A095B09532
:100B7A00119600F8039400FA0895ED91FC911197EB
:100B8A0008950590F491E02D08957A936A93FA9363
:100B9A00EA9308955A934A933A932A931A930A9393
:100BAA0008955D814C813B812A81198108810895CC
:00000001FF
