:060000000C94D6000C94E4
:1000060000000C9400000C9400000C943B010C942E
:1000160000000C9400000C9400000C9400000C945A
:1000260003010C9400000C9400000C9400000C9446
:1000360000000C9400000C9400000C9400000C943A
:1000460000000C9400000C9400000C940000102793
:10005600E80364000A00010000100001100001001E
:100066000000340039003E00420046004A004D00C0
:1000760050005200540055005600560056005500D8
:10008600530051004E004B004800450041003D0022
:100096003800340030002C00270023001F001C000D
:1000A60019001600130011000F000E000E000E00BE
:1000B6000F0010001200140017001A001E00220084
:1000C60026002B003000456E746572204D6F646506
:1000D600282A53696E202353717561726529004D74
:1000E6006F64653A53696E2C20456E7465722046BE
:1000F600727128656E642077697468202329004D23
:100106006F64653A53712C20456E74657220467291
:100116007128656E64207769746820232900436F0F
:100126006E74696E756520696E2063757272656E90
:1001360074206D6F6465004D6F64653A53696E2C6B
:1001460020467271203D20256400456E746572203C
:1001560044757479204379636C6525004D6F646539
:100166003A53712C20467271203D2025642C204480
:100176004325203D2025640080C002000C00660057
:100186006300F101680019006001CC0020007901CC
:10019600E5001F00990105011900B80124010200BC
:1001A6005F027E010000F894EE27ECBBF1E0FBBF96
:1001B600EBBFE5BF8DE0A2E0BB27ED938A95E9F79B
:1001C60080E094E0A0E6ED930197E9F7E0E8F1E03E
:1001D60085919591009761F0A591B591059015903F
:1001E600BF01F00105900D920197E1F7FB01F0CFF9
:1001F600EFE5EDBFE4E0EEBFC0E6D1E00C942E02E1
:100206000A921A929A93AA93BA93EA93FA93EFB739
:10021600EA93E0915502F0915602CE16DF0624F4D9
:10022600F60131966F011AC0CC24DD24A7E5B2E0B1
:100236000E94DB04A1EFB1E0EE0FFF1FAE0FBF1F60
:10024600EC91E5BBA0915702B0915802E2E3F0E0D1
:100256000E94C105E0935702F0935802E991EFBF5F
:10026600F991E991B991A9919991199009901895E7
:10027600EA93E0915902E4BDE99118955F9BFECFA0
:1002860085E88A95F1F7ECB10895F4010E946D05B1
:10029600A0E0B2E18AE790E00E94BC05E0935D022F
:1002A600F0935E02A0915D02B0915E02EFEFF0E086
:1002B600EA1BFB0BE0935902F0935A02E4E6F0E0E6
:1002C600EA19FB090E947A05DF01E4E6F0E00E94E4
:1002D6009205A0915902B0915A02EA0FFB1FE093D2
:1002E6005B02F0935C02E0915B02E3BD0895F401CA
:1002F6000E946D05A0E9B0ED83E090E00E94BC0588
:10030600E0935502F0935602089527D1A0E6B1E096
:100316000E94DE02662477240895062C072801F53C
:100326000E94E20451F4E1E0F0E03F0116D1A9E7B2
:10033600B1E041D18824992412C00E94E70451F407
:10034600E2E0F0E03F0109D1A9E9B1E034D1882427
:10035600992405C00E94EC04A8EBB1E02CD17AC028
:10036600E1E0F0E0E615F705B9F40E94E20419F0C1
:100376000E94E70451F40E94EC040E94F104EDE3AC
:10038600F1E00E94F604B3DF06C00E940505EDE425
:10039600F1E00E94F6045EC0E2E0F0E0E615F70543
:1003A60001F50E94E20419F00E94E70499F4E3E0E3
:1003B600F0E03F01D2D00E94F104E0E5F1E0FA93CB
:1003C600EA9380E00E948E0424960E941005AA24D7
:1003D600BB2406C00E940505EDE4F1E00E94F60488
:1003E60039C0E3E0F0E0E615F705A1F50E94E20466
:1003F60019F00E94E704B1F40E94EC040E94F10493
:10040600E2E6F1E0FA93EA93F4010E941405F5019D
:100416000E94140588E00E948E042C960E94100506
:1004260034DF18C0F501AAE0B0E00E947A055F014A
:10043600A40CB51C92D00E94F104EDE4F1E0FA930D
:10044600EA93F5010E94140584E00E948E04289622
:100456000E9410050895E0E0EABBEBBBE7BBE8BBF2
:10046600EFEFE4BBE0E0E5BBE0E8E1BBE0E0E2BBE8
:10047600E1E0E3BFE0E0E2BFECBFEFBDEEBDEDBD06
:10048600ECBDE7BDE6BDEBBDEABDE9BDE8BDE2BD3D
:10049600E9E7E5BDE0E0E4BDE3BDE1E4E9BFE0E0B6
:1004A600E5BFE4BFEBB9E0E1EAB9E6E8E0BDE0E0CC
:1004B600E0BDE3E3E9B9E0E8E8B9E0E0E0BFE6B9CA
:1004C600EDB9E6BFA0E188D07894D8DE4E2E55244B
:1004D600EBE0F0E0E415F50511F4442455240E9400
:1004E600E20421F400240614070409F402C00DDF17
:1004F60001C013DFEACFFFCFAA93EBB3EF70AE2FA5
:10050600E881E07FEA2BEBBB8DE08A95F1F7DA9A7A
:100516008DE08A95F1F7DA988DE08A95F1F789C032
:10052600AA93A881E9DFE881E295E883A881E4DF60
:1005360085E88A95F1F77DC0AA93E881F0E0E15A53
:10054600FD4FE081A981AE0FEBDFE981E093630205
:10055600E881E093640222960895A2E00E941905BC
:10056600ACE0DEDFA1E00E941905E0E0E093640262
:10057600E09363020895AA93A881AA3031F0E0912E
:100586006502A0916302AE1760F0E0E0EA93A091E5
:100596006402AF5FA0936402CFDFA881AA3009F49A
:1005A60048C0E0916302EF5FE0936302D89AA881A6
:1005B600B7DFD8983EC0BA93AA931A93A981BA8195
:1005C600ED91A983BA831E2FE03019F0A12FD3DF56
:1005D600F5CF188123960895AA93EAB3E06FEABB94
:1005E600D29AD09AD19ADA98D898D998E881E09395
:1005F6006502E058E0936102E881E054E09362020C
:10060600A4E1B0E00E9453050E941F050E941F0549
:100616000E941F05A0E270DF88EC90E00197F1F7D9
:10062600A8E27EDFA4E07CDFA5E87ADFA6E078DF3B
:1006360094DF21960895BA93AA931A930A93AA81EE
:10064600BB8112960E94F005309739F1AA81BB81D1
:1006560014960E94F0058F01309761F00230E0E0B9
:100666001E0778F0F80131978F01AA81BB81149695
:10067600ED93FC93AA81BB8112960E94DB04AC81A8
:10068600A083AA81BB810E94F005FF232AF0ED9189
:10069600FD913196FE93EE9306C0AA81BB81EFEFE2
:1006A600FFEFED93FC931981088125960895BA937F
:1006B600AA9326970E94FD0510E0AC85BD85E0E073
:1006C600F0E0ED93FC93EA89FB893196EA8BFB8B8C
:1006D6003197E4912E2FE03009F415C1E12FE03077
:1006E60039F4253211F411E002C00E9427050AC12F
:1006F600E130A9F4253219F40E94270502C112E05F
:1007060040E000E02D3211F401E0FCC02B3211F480
:100716004BE2F8C0203211F440E2F4C002C0E230ED
:1007260039F450E013E0203311F40068EBC003C045
:10073600E33009F0E7C0203310F02A3308F007C091
:10074600AAE05A9F502DE22FE0535E0FDBC0E22F46
:10075600E33649F40E942E05E889F989A481AA9313
:100766000E943405CEC0E33741F40E942E050E9454
:100776003A050E94C2041E2F0AC0E03761F40E94A7
:100786002E050E943A050E94CE041E2F08600260C4
:100796000F7730E034C0E43611F0E93611F4046026
:1007A60002C0E53731F4E4E5F0E0EE83FF8315E0BF
:1007B6000CC0E83511F4086003C0E83709F0A1C0A1
:1007C600EEE5F0E0EE83FF8314E002FF14C00E9422
:1007D6002E050E944405AB85AA233AF4EA85FB85DB
:1007E6000E946105EA87FB874DE2403011F01F5FEA
:1007F60001C00B7F04C00E942E050E94440500FD27
:1008060011C0151778F407FF08C002FF04C00B7F5C
:10081600242F115001C020E301C020E20E942705C9
:100826005150EFCF312F01FF17C03030A1F003FF39
:1008360006C0EE81FF812591EE83FF8305C0AE8160
:10084600BF812D91AE83BF830E942705503009F0EA
:1008560051503150EACF4BC020E3EE81FF810E9418
:10086600F405E887F987EE81FF813296EE83FF83F0
:10087600E885F985AA85BB85AE17BF0750F02F5FBF
:10088600A885B985EA85FB85EA1BFB0BEA87FB870A
:10089600EFCF2A3328F003FF02C0295F01C0295D8C
:1008A60004FD1AC0213320F4A885B985119709F4EF
:1008B60009C0531710F000FF01C013C020E207FF64
:1008C6000BC020E3006102FF07C00B7F4A930E9422
:1008D6003405503009F051500E942705503009F078
:1008E60051503150A885B985129708F0B5CF00FF51
:1008F60008C0503031F05150E0E2EA930E943405CE
:10090600F8CF10E0E0CEAC85BD850E94F0050E94D0
:10091600040664960895FF92F82E26970E94FF0516
:100926000E944C05309719F4EFEFFFEF23C0DE016C
:1009360016960E945D058D010E944C05EE83FF838D
:10094600E0E0E887E987DE011A960E945D050E94CD
:10095600F005FA93EA931A930A93EEE1F3E0FA9319
:10096600EA93DE011A96A3DE9F01AE81BF81E0E025
:10097600EC93F9010E9406062A96FF900895BA9311
:10098600AA93A991B991EE27FF276D91662311F0DD
:100996003196FBCF0895BA93AA93AA27BB27E9916C
:1009A600F9910590002011F01196FBCFFD010895F5
:1009B600ED91FD913196FE93EE9331970895EAE01D
:1009C600F0E0E415F5050895ECE0F0E0E415F50532
:1009D6000895EFEFFFEF3F010C94B002E1EDF1E077
:1009E600FA93EA930895FA93EA93F4010E946D0547
:1009F6000E94F80584E00E948E042896A1EDB1E0DD
:100A06000C94DE02F401AAE0B0E00E947A054F01E0
:100A1600840C951C0E94B002E1CFA1EDB1E00C94CC
:100A2600DE020E946D050E94F80508950E94930259
:100A3600A3E0B0E00C945305A0E30E947F0288EC8B
:100A460090E00197F1F708952A93AD85BE85EF856D
:100A5600F88909950895E889F9893497E88BF98B1F
:100A66000895AD85BE85EF85F88909950895A8890D
:100A7600B98914960E94F005EE83FF83AE81BF818B
:100A86000895A889B98914960E94F005EA87FB871C
:100A96000895DE011C960E945D050E94F0050895EA
:100AA600109639F080ED97E00197F1F7A895119728
:100AB600C9F708950024AF0DB01D0895F195E1958D
:100AC600F0400895F09560957095E195FF4F6F4F52
:100AD6007F4F08956F2F660F660B762F0895FA9F46
:100AE600F02DEB9FF00DEA9FE02DF10D089554D007
:100AF600F6DF0EF4E3DF08950024112490E1AA0F37
:100B0600BB1F001C111C0E1A1F0A18F40E0E1F1E06
:100B160001C0A1609A9599F7FD01D00108953CD0D6
:100B2600EBDF0EF4CBDF08953F934F935F930024E2
:100B360011244427552730E2AA0FBB1F881F991F8F
:100B4600001C111C441F551F0E1A1F0A460B570B7B
:100B560028F40E0E1F1E461F571F01C0A1603A95AE
:100B660059F7FD01BC01D001CA015F914F913F9138
:100B7600089520D0D9DF0EF4A5DF0895E894B7FFD5
:100B860004C0A095B09511966894F7FD97DFB4DF81
:100B9600FD010EF493DF0895E894F7FF02C08EDF9F
:100BA6006894B7FF06C0A095B095119600F8039417
:100BB60000FA0895E89477FF02C084DF689497FFEF
:100BC6000BC00024A095B095809590951196801D38
:100BD600901D00F8039400FA0895ED91FC91119789
:100BE60008950590F491E02D08957A936A93FA9307
:100BF600EA9308955A934A933A932A931A930A9337
:100C060008955D814C813B812A811981088108956F
:00000001FF
