:020000000C945E
:1000020033000C94A4000C9400000C9400000C9497
:1000120000000C9400000C9400000C9400000C945E
:1000220000000C9400000C9400000C9400000C944E
:1000320000000C9400000C9400000C9400000C943E
:1000420000000C9400000C9400000C9400000C942E
:1000520000001027E80364000A00010000100001FC
:1000620010000100F894EE27ECBBF1E0FBBFEBBF00
:10007200E5BF8DE0A2E0BB27ED938A95E9F780E02A
:1000820094E0A0E6ED930197E9F7EFE5EDBFE4E038
:10009200EEBFC0E6D1E00C94C000AA935D9BFECFF8
:1000A200E881ECB921960895BA93AA931A93AB8189
:1000B200BC81149721F4E3E0F0E0EB83FC83E98157
:1000C200A3E0EA02F001AB81EA0F1E2FA12FE5DFC8
:1000D2001881259608951A930A93E3B3E095E77081
:1000E2001E2FE2B3A8E10E94FA001017A1F4E2B3B6
:1000F200A0E4EA27E2BBE3B3E095E7700E2F101706
:1001020021F40E940401A3E003C00E940401A2E0C2
:10011200B0E0CADF0FC0E2B3A0ED0E94FA000030E7
:1001220021F00E940401A1E003C00E940401A0E0AA
:10013200B0E0BADFE2B3E772E2BB8BE18A95F1F796
:100142000991199108950A921A92FA926A937A93EE
:100152008A939A93AA93BA93EA93FA93EFB7EA939C
:10016200BADFE991EFBFF991E991B991A99199911A
:10017200899179916991F990199009901895E0E027
:10018200EABBEBBBE7BBE8BBE4BBE7E0E5BBE8ED02
:10019200E1BBE0E0E2BBE3BFE2BFECBFEFBDEEBD1F
:1001A200EDBDECBDE7BDE6BDEBBDEABDE9BDE8BD19
:1001B200E2BDE5BDE4BDE3BDE9BFEBB7E064EBBF83
:1001C200E0E0E5BFE4BFE0E4EABFE0E0EBB9E8E08D
:1001D200EAB9E6E8E0BDE0E0E0BDE3E3E9B9E0E882
:1001E200E8B9E0E0E0BFE6B9EDB9E6BF7894FFCF49
:1001F200FFCFEA27E2BB8BE18A95F1F7E3B3E09503
:10020200E7700E2F0895E12FF0E0FA93EA93089534
:00000001FF
